{
  "_format": "hh-sol-artifact-1",
  "contractName": "CoffeeShop",
  "sourceName": "contracts/Coffee.sol",
  "abi": [
    {
      "inputs": [],
      "stateMutability": "nonpayable",
      "type": "constructor"
    },
    {
      "inputs": [
        {
          "internalType": "string",
          "name": "name",
          "type": "string"
        },
        {
          "internalType": "string",
          "name": "message",
          "type": "string"
        }
      ],
      "name": "buyCoffee",
      "outputs": [],
      "stateMutability": "payable",
      "type": "function"
    },
    {
      "inputs": [
        {
          "internalType": "uint256",
          "name": "",
          "type": "uint256"
        }
      ],
      "name": "coffeeOrders",
      "outputs": [
        {
          "internalType": "string",
          "name": "customerName",
          "type": "string"
        },
        {
          "internalType": "uint256",
          "name": "timestamp",
          "type": "uint256"
        },
        {
          "internalType": "address",
          "name": "customerAddress",
          "type": "address"
        },
        {
          "internalType": "uint256",
          "name": "pricePaid",
          "type": "uint256"
        },
        {
          "internalType": "string",
          "name": "note",
          "type": "string"
        }
      ],
      "stateMutability": "view",
      "type": "function"
    },
    {
      "inputs": [
        {
          "internalType": "uint256",
          "name": "index",
          "type": "uint256"
        }
      ],
      "name": "getOrder",
      "outputs": [
        {
          "internalType": "string",
          "name": "",
          "type": "string"
        },
        {
          "internalType": "uint256",
          "name": "",
          "type": "uint256"
        },
        {
          "internalType": "address",
          "name": "",
          "type": "address"
        },
        {
          "internalType": "uint256",
          "name": "",
          "type": "uint256"
        },
        {
          "internalType": "string",
          "name": "",
          "type": "string"
        }
      ],
      "stateMutability": "view",
      "type": "function"
    },
    {
      "inputs": [],
      "name": "getOrders",
      "outputs": [
        {
          "components": [
            {
              "internalType": "string",
              "name": "customerName",
              "type": "string"
            },
            {
              "internalType": "uint256",
              "name": "timestamp",
              "type": "uint256"
            },
            {
              "internalType": "address",
              "name": "customerAddress",
              "type": "address"
            },
            {
              "internalType": "uint256",
              "name": "pricePaid",
              "type": "uint256"
            },
            {
              "internalType": "string",
              "name": "note",
              "type": "string"
            }
          ],
          "internalType": "struct CoffeeShop.CoffeeOrder[]",
          "name": "",
          "type": "tuple[]"
        }
      ],
      "stateMutability": "view",
      "type": "function"
    },
    {
      "inputs": [],
      "name": "getOrdersCount",
      "outputs": [
        {
          "internalType": "uint256",
          "name": "",
          "type": "uint256"
        }
      ],
      "stateMutability": "view",
      "type": "function"
    },
    {
      "inputs": [],
      "name": "owner",
      "outputs": [
        {
          "internalType": "address payable",
          "name": "",
          "type": "address"
        }
      ],
      "stateMutability": "view",
      "type": "function"
    }
  ],
  "bytecode": "0x608060405234801561001057600080fd5b5033600160006101000a81548173ffffffffffffffffffffffffffffffffffffffff021916908373ffffffffffffffffffffffffffffffffffffffff16021790555061122d806100616000396000f3fe6080604052600436106100555760003560e01c8063204206e11461005a5780632e2dc43e14610076578063756734c9146100a15780638da5cb5b146100e2578063b5b3b0511461010d578063d09ef24114610138575b600080fd5b610074600480360381019061006f91906109e7565b610179565b005b34801561008257600080fd5b5061008b610320565b6040516100989190610c77565b60405180910390f35b3480156100ad57600080fd5b506100c860048036038101906100c39190610cc5565b61050d565b6040516100d9959493929190610d5a565b60405180910390f35b3480156100ee57600080fd5b506100f7610683565b6040516101049190610ddc565b60405180910390f35b34801561011957600080fd5b506101226106a9565b60405161012f9190610df7565b60405180910390f35b34801561014457600080fd5b5061015f600480360381019061015a9190610cc5565b6106b5565b604051610170959493929190610d5a565b60405180910390f35b600034116101bc576040517f08c379a00000000000000000000000000000000000000000000000000000000081526004016101b390610e5e565b60405180910390fd5b600160009054906101000a900473ffffffffffffffffffffffffffffffffffffffff1673ffffffffffffffffffffffffffffffffffffffff166108fc349081150290604051600060405180830381858888f19350505050158015610224573d6000803e3d6000fd5b5060006040518060a001604052808481526020014281526020013373ffffffffffffffffffffffffffffffffffffffff168152602001348152602001838152509050600081908060018154018082558091505060019003906000526020600020906005020160009091909190915060008201518160000190816102a7919061108a565b506020820151816001015560408201518160020160006101000a81548173ffffffffffffffffffffffffffffffffffffffff021916908373ffffffffffffffffffffffffffffffffffffffff160217905550606082015181600301556080820151816004019081610318919061108a565b505050505050565b60606000805480602002602001604051908101604052809291908181526020016000905b8282101561050457838290600052602060002090600502016040518060a001604052908160008201805461037790610ead565b80601f01602080910402602001604051908101604052809291908181526020018280546103a390610ead565b80156103f05780601f106103c5576101008083540402835291602001916103f0565b820191906000526020600020905b8154815290600101906020018083116103d357829003601f168201915b50505050508152602001600182015481526020016002820160009054906101000a900473ffffffffffffffffffffffffffffffffffffffff1673ffffffffffffffffffffffffffffffffffffffff1673ffffffffffffffffffffffffffffffffffffffff1681526020016003820154815260200160048201805461047390610ead565b80601f016020809104026020016040519081016040528092919081815260200182805461049f90610ead565b80156104ec5780601f106104c1576101008083540402835291602001916104ec565b820191906000526020600020905b8154815290600101906020018083116104cf57829003601f168201915b50505050508152505081526020019060010190610344565b50505050905090565b6000818154811061051d57600080fd5b906000526020600020906005020160009150905080600001805461054090610ead565b80601f016020809104026020016040519081016040528092919081815260200182805461056c90610ead565b80156105b95780601f1061058e576101008083540402835291602001916105b9565b820191906000526020600020905b81548152906001019060200180831161059c57829003601f168201915b5050505050908060010154908060020160009054906101000a900473ffffffffffffffffffffffffffffffffffffffff169080600301549080600401805461060090610ead565b80601f016020809104026020016040519081016040528092919081815260200182805461062c90610ead565b80156106795780601f1061064e57610100808354040283529160200191610679565b820191906000526020600020905b81548152906001019060200180831161065c57829003601f168201915b5050505050905085565b600160009054906101000a900473ffffffffffffffffffffffffffffffffffffffff1681565b60008080549050905090565b6060600080600060606000805490508610610705576040517f08c379a00000000000000000000000000000000000000000000000000000000081526004016106fc906111a8565b60405180910390fd5b600080878154811061071a576107196111c8565b5b906000526020600020906005020190508060000181600101548260020160009054906101000a900473ffffffffffffffffffffffffffffffffffffffff1683600301548460040184805461076d90610ead565b80601f016020809104026020016040519081016040528092919081815260200182805461079990610ead565b80156107e65780601f106107bb576101008083540402835291602001916107e6565b820191906000526020600020905b8154815290600101906020018083116107c957829003601f168201915b505050505094508080546107f990610ead565b80601f016020809104026020016040519081016040528092919081815260200182805461082590610ead565b80156108725780601f1061084757610100808354040283529160200191610872565b820191906000526020600020905b81548152906001019060200180831161085557829003601f168201915b50505050509050955095509550955095505091939590929450565b6000604051905090565b600080fd5b600080fd5b600080fd5b600080fd5b6000601f19601f8301169050919050565b7f4e487b7100000000000000000000000000000000000000000000000000000000600052604160045260246000fd5b6108f4826108ab565b810181811067ffffffffffffffff82111715610913576109126108bc565b5b80604052505050565b600061092661088d565b905061093282826108eb565b919050565b600067ffffffffffffffff821115610952576109516108bc565b5b61095b826108ab565b9050602081019050919050565b82818337600083830152505050565b600061098a61098584610937565b61091c565b9050828152602081018484840111156109a6576109a56108a6565b5b6109b1848285610968565b509392505050565b600082601f8301126109ce576109cd6108a1565b5b81356109de848260208601610977565b91505092915050565b600080604083850312156109fe576109fd610897565b5b600083013567ffffffffffffffff811115610a1c57610a1b61089c565b5b610a28858286016109b9565b925050602083013567ffffffffffffffff811115610a4957610a4861089c565b5b610a55858286016109b9565b9150509250929050565b600081519050919050565b600082825260208201905092915050565b6000819050602082019050919050565b600081519050919050565b600082825260208201905092915050565b60005b83811015610ac5578082015181840152602081019050610aaa565b60008484015250505050565b6000610adc82610a8b565b610ae68185610a96565b9350610af6818560208601610aa7565b610aff816108ab565b840191505092915050565b6000819050919050565b610b1d81610b0a565b82525050565b600073ffffffffffffffffffffffffffffffffffffffff82169050919050565b6000610b4e82610b23565b9050919050565b610b5e81610b43565b82525050565b600060a0830160008301518482036000860152610b818282610ad1565b9150506020830151610b966020860182610b14565b506040830151610ba96040860182610b55565b506060830151610bbc6060860182610b14565b5060808301518482036080860152610bd48282610ad1565b9150508091505092915050565b6000610bed8383610b64565b905092915050565b6000602082019050919050565b6000610c0d82610a5f565b610c178185610a6a565b935083602082028501610c2985610a7b565b8060005b85811015610c655784840389528151610c468582610be1565b9450610c5183610bf5565b925060208a01995050600181019050610c2d565b50829750879550505050505092915050565b60006020820190508181036000830152610c918184610c02565b905092915050565b610ca281610b0a565b8114610cad57600080fd5b50565b600081359050610cbf81610c99565b92915050565b600060208284031215610cdb57610cda610897565b5b6000610ce984828501610cb0565b91505092915050565b600082825260208201905092915050565b6000610d0e82610a8b565b610d188185610cf2565b9350610d28818560208601610aa7565b610d31816108ab565b840191505092915050565b610d4581610b0a565b82525050565b610d5481610b43565b82525050565b600060a0820190508181036000830152610d748188610d03565b9050610d836020830187610d3c565b610d906040830186610d4b565b610d9d6060830185610d3c565b8181036080830152610daf8184610d03565b90509695505050505050565b6000610dc682610b23565b9050919050565b610dd681610dbb565b82525050565b6000602082019050610df16000830184610dcd565b92915050565b6000602082019050610e0c6000830184610d3c565b92915050565b7f506c65617365207061792067726561746572207468616e203020657468657200600082015250565b6000610e48601f83610cf2565b9150610e5382610e12565b602082019050919050565b60006020820190508181036000830152610e7781610e3b565b9050919050565b7f4e487b7100000000000000000000000000000000000000000000000000000000600052602260045260246000fd5b60006002820490506001821680610ec557607f821691505b602082108103610ed857610ed7610e7e565b5b50919050565b60008190508160005260206000209050919050565b60006020601f8301049050919050565b600082821b905092915050565b600060088302610f407fffffffffffffffffffffffffffffffffffffffffffffffffffffffffffffffff82610f03565b610f4a8683610f03565b95508019841693508086168417925050509392505050565b6000819050919050565b6000610f87610f82610f7d84610b0a565b610f62565b610b0a565b9050919050565b6000819050919050565b610fa183610f6c565b610fb5610fad82610f8e565b848454610f10565b825550505050565b600090565b610fca610fbd565b610fd5818484610f98565b505050565b5b81811015610ff957610fee600082610fc2565b600181019050610fdb565b5050565b601f82111561103e5761100f81610ede565b61101884610ef3565b81016020851015611027578190505b61103b61103385610ef3565b830182610fda565b50505b505050565b600082821c905092915050565b600061106160001984600802611043565b1980831691505092915050565b600061107a8383611050565b9150826002028217905092915050565b61109382610a8b565b67ffffffffffffffff8111156110ac576110ab6108bc565b5b6110b68254610ead565b6110c1828285610ffd565b600060209050601f8311600181146110f457600084156110e2578287015190505b6110ec858261106e565b865550611154565b601f19841661110286610ede565b60005b8281101561112a57848901518255600182019150602085019450602081019050611105565b868310156111475784890151611143601f891682611050565b8355505b6001600288020188555050505b505050505050565b7f4f7264657220696e646578206f7574206f662072616e67650000000000000000600082015250565b6000611192601883610cf2565b915061119d8261115c565b602082019050919050565b600060208201905081810360008301526111c181611185565b9050919050565b7f4e487b7100000000000000000000000000000000000000000000000000000000600052603260045260246000fdfea2646970667358221220858fd55bbdb695258e5269761012bd4068ef47ea7390d0e294d925c6f684f6a664736f6c63430008110033",
  "linkReferences": {},
  "deployedLinkReferences": {}
}